{
  "contractName": "MarketPlace",
  "abi": [
    {
      "inputs": [
        {
          "internalType": "string",
          "name": "_name",
          "type": "string"
        },
        {
          "internalType": "address",
          "name": "_contract",
          "type": "address"
        }
      ],
      "stateMutability": "nonpayable",
      "type": "constructor"
    },
    {
      "anonymous": false,
      "inputs": [
        {
          "indexed": false,
          "internalType": "uint256",
          "name": "productId",
          "type": "uint256"
        }
      ],
      "name": "LogProductBought",
      "type": "event"
    },
    {
      "anonymous": false,
      "inputs": [
        {
          "components": [
            {
              "internalType": "uint256",
              "name": "tokenId",
              "type": "uint256"
            },
            {
              "internalType": "address",
              "name": "owner",
              "type": "address"
            },
            {
              "internalType": "bool",
              "name": "sold",
              "type": "bool"
            },
            {
              "internalType": "uint256",
              "name": "price",
              "type": "uint256"
            },
            {
              "internalType": "uint256",
              "name": "productId",
              "type": "uint256"
            }
          ],
          "indexed": false,
          "internalType": "struct MarketPlace.Product",
          "name": "product",
          "type": "tuple"
        }
      ],
      "name": "LogProductInSell",
      "type": "event"
    },
    {
      "inputs": [
        {
          "internalType": "uint256",
          "name": "_tokenId",
          "type": "uint256"
        },
        {
          "internalType": "uint256",
          "name": "_price",
          "type": "uint256"
        }
      ],
      "name": "addProductToSell",
      "outputs": [],
      "stateMutability": "nonpayable",
      "type": "function"
    },
    {
      "inputs": [],
      "name": "getProductsInSell",
      "outputs": [
        {
          "components": [
            {
              "internalType": "uint256",
              "name": "tokenId",
              "type": "uint256"
            },
            {
              "internalType": "address",
              "name": "owner",
              "type": "address"
            },
            {
              "internalType": "bool",
              "name": "sold",
              "type": "bool"
            },
            {
              "internalType": "uint256",
              "name": "price",
              "type": "uint256"
            },
            {
              "internalType": "uint256",
              "name": "productId",
              "type": "uint256"
            }
          ],
          "internalType": "struct MarketPlace.Product[]",
          "name": "",
          "type": "tuple[]"
        }
      ],
      "stateMutability": "view",
      "type": "function",
      "constant": true
    },
    {
      "inputs": [
        {
          "internalType": "uint256",
          "name": "productId",
          "type": "uint256"
        }
      ],
      "name": "getProduct",
      "outputs": [
        {
          "components": [
            {
              "internalType": "uint256",
              "name": "tokenId",
              "type": "uint256"
            },
            {
              "internalType": "address",
              "name": "owner",
              "type": "address"
            },
            {
              "internalType": "bool",
              "name": "sold",
              "type": "bool"
            },
            {
              "internalType": "uint256",
              "name": "price",
              "type": "uint256"
            },
            {
              "internalType": "uint256",
              "name": "productId",
              "type": "uint256"
            }
          ],
          "internalType": "struct MarketPlace.Product",
          "name": "",
          "type": "tuple"
        }
      ],
      "stateMutability": "view",
      "type": "function",
      "constant": true
    },
    {
      "inputs": [
        {
          "internalType": "uint256",
          "name": "productId",
          "type": "uint256"
        }
      ],
      "name": "buyProduct",
      "outputs": [
        {
          "components": [
            {
              "internalType": "uint256",
              "name": "tokenId",
              "type": "uint256"
            },
            {
              "internalType": "address",
              "name": "owner",
              "type": "address"
            },
            {
              "internalType": "bool",
              "name": "sold",
              "type": "bool"
            },
            {
              "internalType": "uint256",
              "name": "price",
              "type": "uint256"
            },
            {
              "internalType": "uint256",
              "name": "productId",
              "type": "uint256"
            }
          ],
          "internalType": "struct MarketPlace.Product",
          "name": "",
          "type": "tuple"
        }
      ],
      "stateMutability": "payable",
      "type": "function",
      "payable": true
    }
  ],
  "bytecode": "0x6080604052600160025560006003553480156200001b57600080fd5b506040516200157a3803806200157a8339818101604052810190620000419190620001f0565b80600160006101000a81548173ffffffffffffffffffffffffffffffffffffffff021916908373ffffffffffffffffffffffffffffffffffffffff16021790555081600090805190602001906200009a929190620000ab565b506001600281905550505062000428565b828054620000b9906200031f565b90600052602060002090601f016020900481019282620000dd576000855562000129565b82601f10620000f857805160ff191683800117855562000129565b8280016001018555821562000129579182015b82811115620001285782518255916020019190600101906200010b565b5b5090506200013891906200013c565b5090565b5b80821115620001575760008160009055506001016200013d565b5090565b6000620001726200016c846200027f565b62000256565b905082815260208101848484011115620001915762000190620003ee565b5b6200019e848285620002e9565b509392505050565b600081519050620001b7816200040e565b92915050565b600082601f830112620001d557620001d4620003e9565b5b8151620001e78482602086016200015b565b91505092915050565b600080604083850312156200020a5762000209620003f8565b5b600083015167ffffffffffffffff8111156200022b576200022a620003f3565b5b6200023985828601620001bd565b92505060206200024c85828601620001a6565b9150509250929050565b60006200026262000275565b905062000270828262000355565b919050565b6000604051905090565b600067ffffffffffffffff8211156200029d576200029c620003ba565b5b620002a882620003fd565b9050602081019050919050565b6000620002c282620002c9565b9050919050565b600073ffffffffffffffffffffffffffffffffffffffff82169050919050565b60005b8381101562000309578082015181840152602081019050620002ec565b8381111562000319576000848401525b50505050565b600060028204905060018216806200033857607f821691505b602082108114156200034f576200034e6200038b565b5b50919050565b6200036082620003fd565b810181811067ffffffffffffffff82111715620003825762000381620003ba565b5b80604052505050565b7f4e487b7100000000000000000000000000000000000000000000000000000000600052602260045260246000fd5b7f4e487b7100000000000000000000000000000000000000000000000000000000600052604160045260246000fd5b600080fd5b600080fd5b600080fd5b600080fd5b6000601f19601f8301169050919050565b6200041981620002b5565b81146200042557600080fd5b50565b61114280620004386000396000f3fe60806040526004361061003f5760003560e01c80633cecefa614610044578063854b2f371461006f5780638642269e14610098578063b9db15b4146100c8575b600080fd5b34801561005057600080fd5b50610059610105565b6040516100669190610ced565b60405180910390f35b34801561007b57600080fd5b5061009660048036038101906100919190610a36565b6102a6565b005b6100b260048036038101906100ad9190610a09565b6103f4565b6040516100bf9190610daf565b60405180910390f35b3480156100d457600080fd5b506100ef60048036038101906100ea9190610a09565b6108a1565b6040516100fc9190610daf565b60405180910390f35b606060008060035467ffffffffffffffff81111561012657610125610fa8565b5b60405190808252806020026020018201604052801561015f57816020015b61014c6109ad565b8152602001906001900390816101445790505b5090506000600190505b6002548110801561017b575060035483105b1561029d57600015156004600083815260200190815260200160002060010160149054906101000a900460ff161515141561028a57600460008281526020019081526020016000206040518060a0016040529081600082015481526020016001820160009054906101000a900473ffffffffffffffffffffffffffffffffffffffff1673ffffffffffffffffffffffffffffffffffffffff1673ffffffffffffffffffffffffffffffffffffffff1681526020016001820160149054906101000a900460ff16151515158152602001600282015481526020016003820154815250508284815181106102705761026f610f79565b5b6020026020010181905250828061028690610f01565b9350505b808061029590610f01565b915050610169565b50809250505090565b6000600254905060006040518060a001604052808581526020013373ffffffffffffffffffffffffffffffffffffffff16815260200160001515815260200184815260200183815250905080600460008481526020019081526020016000206000820151816000015560208201518160010160006101000a81548173ffffffffffffffffffffffffffffffffffffffff021916908373ffffffffffffffffffffffffffffffffffffffff16021790555060408201518160010160146101000a81548160ff02191690831515021790555060608201518160020155608082015181600301559050507fe9b9471ea40775093f5c86860e819d376b4d0a09574f072f45d6c4d8571e7d1b816040516103bc9190610daf565b60405180910390a160016002546103d39190610e2f565b60028190555060016003546103e89190610e2f565b60038190555050505050565b6103fc6109ad565b60008211801561040d575060025482105b61044c576040517f08c379a000000000000000000000000000000000000000000000000000000000815260040161044390610d0f565b60405180910390fd5b6004600083815260200190815260200160002060010160149054906101000a900460ff16156104b0576040517f08c379a00000000000000000000000000000000000000000000000000000000081526004016104a790610d4f565b60405180910390fd5b3373ffffffffffffffffffffffffffffffffffffffff166004600084815260200190815260200160002060010160009054906101000a900473ffffffffffffffffffffffffffffffffffffffff1673ffffffffffffffffffffffffffffffffffffffff161415610555576040517f08c379a000000000000000000000000000000000000000000000000000000000815260040161054c90610d6f565b60405180910390fd5b346004600084815260200190815260200160002060020154146105ad576040517f08c379a00000000000000000000000000000000000000000000000000000000081526004016105a490610d8f565b60405180910390fd5b6004600083815260200190815260200160002060010160009054906101000a900473ffffffffffffffffffffffffffffffffffffffff1673ffffffffffffffffffffffffffffffffffffffff166108fc60046000858152602001908152602001600020600201549081150290604051600060405180830381858888f1935050505015801561063f573d6000803e3d6000fd5b5060016004600084815260200190815260200160002060010160146101000a81548160ff021916908315150217905550600160035461067e9190610e85565b600381905550600160009054906101000a900473ffffffffffffffffffffffffffffffffffffffff1673ffffffffffffffffffffffffffffffffffffffff166342842e0e6004600085815260200190815260200160002060010160009054906101000a900473ffffffffffffffffffffffffffffffffffffffff163360046000878152602001908152602001600020600001546040518463ffffffff1660e01b815260040161072f93929190610cb6565b600060405180830381600087803b15801561074957600080fd5b505af115801561075d573d6000803e3d6000fd5b50505050336004600084815260200190815260200160002060010160006101000a81548173ffffffffffffffffffffffffffffffffffffffff021916908373ffffffffffffffffffffffffffffffffffffffff1602179055507f1f4ede084b420f1723c016e7cc7cbf2879901b3336d4ac99dfad36460898f1ea826040516107e59190610dca565b60405180910390a1600460008381526020019081526020016000206040518060a0016040529081600082015481526020016001820160009054906101000a900473ffffffffffffffffffffffffffffffffffffffff1673ffffffffffffffffffffffffffffffffffffffff1673ffffffffffffffffffffffffffffffffffffffff1681526020016001820160149054906101000a900460ff16151515158152602001600282015481526020016003820154815250509050919050565b6108a96109ad565b6000821180156108ba575060025482105b6108f9576040517f08c379a00000000000000000000000000000000000000000000000000000000081526004016108f090610d2f565b60405180910390fd5b600460008381526020019081526020016000206040518060a0016040529081600082015481526020016001820160009054906101000a900473ffffffffffffffffffffffffffffffffffffffff1673ffffffffffffffffffffffffffffffffffffffff1673ffffffffffffffffffffffffffffffffffffffff1681526020016001820160149054906101000a900460ff16151515158152602001600282015481526020016003820154815250509050919050565b6040518060a0016040528060008152602001600073ffffffffffffffffffffffffffffffffffffffff16815260200160001515815260200160008152602001600081525090565b600081359050610a03816110f5565b92915050565b600060208284031215610a1f57610a1e610fd7565b5b6000610a2d848285016109f4565b91505092915050565b60008060408385031215610a4d57610a4c610fd7565b5b6000610a5b858286016109f4565b9250506020610a6c858286016109f4565b9150509250929050565b6000610a828383610bc8565b60a08301905092915050565b610a9781610eb9565b82525050565b610aa681610eb9565b82525050565b6000610ab782610df5565b610ac18185610e0d565b9350610acc83610de5565b8060005b83811015610afd578151610ae48882610a76565b9750610aef83610e00565b925050600181019050610ad0565b5085935050505092915050565b610b1381610ecb565b82525050565b6000610b26601583610e1e565b9150610b3182610fdc565b602082019050919050565b6000610b49601483610e1e565b9150610b5482611005565b602082019050919050565b6000610b6c602283610e1e565b9150610b778261102e565b604082019050919050565b6000610b8f602f83610e1e565b9150610b9a8261107d565b604082019050919050565b6000610bb2601f83610e1e565b9150610bbd826110cc565b602082019050919050565b60a082016000820151610bde6000850182610c98565b506020820151610bf16020850182610a8e565b506040820151610c046040850182610b0a565b506060820151610c176060850182610c98565b506080820151610c2a6080850182610c98565b50505050565b60a082016000820151610c466000850182610c98565b506020820151610c596020850182610a8e565b506040820151610c6c6040850182610b0a565b506060820151610c7f6060850182610c98565b506080820151610c926080850182610c98565b50505050565b610ca181610ef7565b82525050565b610cb081610ef7565b82525050565b6000606082019050610ccb6000830186610a9d565b610cd86020830185610a9d565b610ce56040830184610ca7565b949350505050565b60006020820190508181036000830152610d078184610aac565b905092915050565b60006020820190508181036000830152610d2881610b19565b9050919050565b60006020820190508181036000830152610d4881610b3c565b9050919050565b60006020820190508181036000830152610d6881610b5f565b9050919050565b60006020820190508181036000830152610d8881610b82565b9050919050565b60006020820190508181036000830152610da881610ba5565b9050919050565b600060a082019050610dc46000830184610c30565b92915050565b6000602082019050610ddf6000830184610ca7565b92915050565b6000819050602082019050919050565b600081519050919050565b6000602082019050919050565b600082825260208201905092915050565b600082825260208201905092915050565b6000610e3a82610ef7565b9150610e4583610ef7565b9250827fffffffffffffffffffffffffffffffffffffffffffffffffffffffffffffffff03821115610e7a57610e79610f4a565b5b828201905092915050565b6000610e9082610ef7565b9150610e9b83610ef7565b925082821015610eae57610ead610f4a565b5b828203905092915050565b6000610ec482610ed7565b9050919050565b60008115159050919050565b600073ffffffffffffffffffffffffffffffffffffffff82169050919050565b6000819050919050565b6000610f0c82610ef7565b91507fffffffffffffffffffffffffffffffffffffffffffffffffffffffffffffffff821415610f3f57610f3e610f4a565b5b600182019050919050565b7f4e487b7100000000000000000000000000000000000000000000000000000000600052601160045260246000fd5b7f4e487b7100000000000000000000000000000000000000000000000000000000600052603260045260246000fd5b7f4e487b7100000000000000000000000000000000000000000000000000000000600052604160045260246000fd5b600080fd5b7f50726f6475637420646f65736e27742065786973740000000000000000000000600082015250565b7f496e636f72726563742070726f64756374206964000000000000000000000000600082015250565b7f5468652061727469636c652068617320616c7265616479206265656e20736f6c60008201527f642e000000000000000000000000000000000000000000000000000000000000602082015250565b7f53656c6c657220616e6420637573746f6d65722063616e6e6f7420626520746860008201527f652073616d65206163636f756e742e0000000000000000000000000000000000602082015250565b7f507269636520616e642074782076616c75652073686f756c64206d6565742e00600082015250565b6110fe81610ef7565b811461110957600080fd5b5056fea26469706673582212201dbedab4cd8f9261992ce5a08f39edde067e88e6dd32e18d4251187cb32a804364736f6c63430008070033",
  "immutableReferences": {},
  "source": "// SPDX-License-Identifier: MIT\r\npragma solidity ^0.8.0;\r\n\r\nabstract contract NFTManager {\r\n  function safeTransferFrom(address, address, uint256) public virtual;\r\n}\r\n\r\ncontract MarketPlace {\r\n  \r\n  struct Product {\r\n    uint256 tokenId;\r\n    address owner;\r\n    bool sold;\r\n    uint256 price;\r\n    uint256 productId;\r\n  }\r\n\r\n  string name;\r\n\r\n  address nftContract;\r\n  uint256 nextProductId = 1;\r\n  uint256 productsToSell = 0;\r\n\r\n  mapping (uint256 => Product) products;\r\n\r\n  event LogProductBought(uint256 productId);\r\n\r\n  event LogProductInSell(Product product);\r\n  \r\n\r\n  constructor(string memory _name, address _contract) {\r\n    nftContract = _contract;\r\n    name = _name;\r\n    nextProductId = 1;\r\n  }\r\n\r\n  function addProductToSell( \r\n    uint256 _tokenId,\r\n    uint256 _price\r\n    ) external {\r\n      \r\n    // Setting Product struct fields\r\n    uint256 productId = nextProductId;\r\n    Product memory product = Product(_tokenId, msg.sender, false, _price, productId);\r\n\r\n    // Altering state\r\n    products[productId] = product;\r\n    emit LogProductInSell(product);\r\n    nextProductId = nextProductId + 1;\r\n    productsToSell = productsToSell + 1;\r\n\r\n  }\r\n\r\n  function getProductsInSell() public view returns (Product[] memory) {\r\n    uint j = 0;\r\n    Product[] memory _products = new Product[](productsToSell);\r\n    for (uint256 i = 1; i < nextProductId && j < productsToSell; i++) {\r\n      if (products[i].sold == false) {\r\n        _products[j] = products[i];\r\n        j++;\r\n      }\r\n    }\r\n    return _products;\r\n  }\r\n\r\n  function getProduct(uint256 productId) public view returns (Product memory) {\r\n    require(productId > 0 && productId < nextProductId, \"Incorrect product id\");\r\n    return products[productId];\r\n  }\r\n\r\n  function buyProduct(uint256 productId) payable external returns(Product memory) {\r\n\r\n    // Provided product exists in products array\r\n    require(productId > 0 && productId < nextProductId, \"Product doesn't exist\");\r\n\r\n    // If sell conditions are met\r\n    require(!products[productId].sold, \"The article has already been sold.\");\r\n    require(products[productId].owner != msg.sender, \"Seller and customer cannot be the same account.\");\r\n    require(products[productId].price == uint256(msg.value), \"Price and tx value should meet.\");\r\n\r\n    // Then we process the tx\r\n    payable(products[productId].owner).transfer(products[productId].price);\r\n    products[productId].sold = true;\r\n    productsToSell = productsToSell - 1;\r\n\r\n    // Transfer NFT\r\n    NFTManager(nftContract).safeTransferFrom(products[productId].owner, msg.sender, products[productId].tokenId);\r\n\r\n    // Changing owner\r\n    products[productId].owner = msg.sender;\r\n\r\n    // And emit the correspondant event\r\n    emit LogProductBought(productId);\r\n\r\n    return products[productId];\r\n  }\r\n  \r\n}",
  "sourcePath": "/home/carlos/Documents/blockchain/MarketPlaceContracts/contracts/MarketPlace.sol",
  "compiler": {
    "name": "solc",
    "version": "0.8.7+commit.e28d00a7.Emscripten.clang"
  },
  "schemaVersion": "3.4.3",
  "updatedAt": "2021-09-27T16:49:32.306Z",
  "networkType": "ethereum",
  "devdoc": {
    "kind": "dev",
    "methods": {},
    "version": 1
  },
  "userdoc": {
    "kind": "user",
    "methods": {},
    "version": 1
  }
}